S00D0000626C696E6B2E7372656307
S11300000C9424000C942E000C942E000C942E00BE
S11300100C942E000C942E000C942E000C942E00A4
S11300200C942E000C942E000C942E000C942E0094
S11300300C942E000C942E000C942E000C942E0084
S11300400C942E000C942E0011241FBECFE5D4E096
S1130050DEBFCDBF0E9430000C944A000C94000017
S113006081E087BB91E098BB2FE33DE043E0215062
S113007030404040E1F700C0000088B3892788BBC6
S11300802FE33DE043E0215030404040E1F700C021
S10B00900000E9CFF894FFCF52
S9030000FC
