S01300006465626F756E63655F73772E7372656383
S11300000EC015C014C013C012C011C010C00FC060
S11300100EC00DC00CC00BC00AC009C008C011241A
S11300201FBECFE5D2E0DEBFCDBF02D041C0E8CFD6
S1130030BC9A88B390E1892788BBBA9ABB98C39AC3
S113004020E030E080E090E040E050E070E164E0E7
S1130050B39916C0019621E0853F9207D4F041156B
S1130060510509F588B3872788BB88B3862788BBE1
S113007020E030E080E090E041E050E0B39BEACF44
S11300802F5F3F4F81E0253F380734F480E090E054
S1130090DFCF20E030E0DCCF20E030E080E090E013
S11300A040E050E0D5CF20E030E080E090E0D0CFD9
S10700B0F894FFCFEE
S9030000FC
