S00D0000626C696E6B2E7372656307
S11300000C9424000C942E000C942E000C942E00BE
S11300100C942E000C942E000C942E000C942E00A4
S11300200C942E000C942E000C942E000C942E0094
S11300300C942E000C942E000C942E000C942E0084
S11300400C942E000C942E0011241FBECFE5D4E096
S1130050DEBFCDBF0E9430000C9440000C94000021
S113006081E087BB91E088B3892788BB2FE33DE01B
S113007043E0215030404040E1F700C00000F3CF9E
S1070080F894FFCF1E
S9030000FC
